:040000000DEF11F0FF
:021DA800120027
:101DAB000A0064000A0003016EACA2FED701C0ADAD
:101DBB00FF1200016E9EA8FED701C0ADFF120000FE
:101DCB000E226E020E216E03EC10F01200000E229A
:101DDB006E020E216E03EC10F01200940E0D6E3F8E
:101DEB000E0E6E77EC13F012009EAA04D0AECF014C
:101DFB00F0010E1200000E1200000E3F6E000E409E
:101E0B006E000E416E000E426E120076312E3220A5
:101E1B002862657461292031392D4A756E2D323057
:101E2B00313700930E0D6E360E0E6E77EC13F08A73
:101E3B0086FAEC0EF00009D8B4FBD78A9612006034
:101E4B000E0D6E000E0E6E000E106E090E0F6E2C28
:101E5B00EC12F00DC056F00EC057F01200000E043D
:101E6B006E000E036E03D000D0034A042A03500108
:101E7B005C04500258D8A01200F6D7475043180AFA
:101E8B00E14850441807E14950451804E14A5046CF
:101E9B0018D8B402D0010E1200000E12001DC0475C
:101EAB00F01EC048F0000E48BEFF0E496E4A6E0091
:101EBB000E436E000E446E000E456E000E466E1203
:101ECB0000026E200E026001D012000250D9EC0EFF
:101EDB00F0600E4F24D96E000E5020DA6E02C0DF78
:101EEB00FF4F4A502A12009E0E0D6E3E0E0E6EC311
:101EFB000E0F6E000E106E77EC13F0FB0E0D6E3C9A
:101F0B000E0E6E77EC13F0F3EC0EF012003F504018
:101F1B001041104210D8B4120051C01DF01E6A3F80
:101F2B00C01FF040C020F041C021F042C022F0B6EB
:101F3B00EC0FF01200AB8E948C948EAC98AC84AA00
:101F4B0086030EB06E400EAF6EAC8AAB88D38CD3CB
:101F5B008AD388D3829290929C939493989396125F
:101F6B00001FC047F020C048F021C049F022C04AF2
:101F7B00F0000E436E000E446E000E456E000E46D2
:101F8B006E1DB002D08A9801D08A88120050BE1202
:101F9B0000505003E14F04D8A01200600E4F24D91B
:101FAB006E000E5020DA6E7F0EDF6E4F06D8A050FB
:101FBB0006FB0E0D6E3F0E0E6E77EC13F01200004B
:101FCB000E026E000E016E000E026E000E016E020E
:101FDB00500FE1630E015CD8B00BD0600E0124D919
:101FEB006E000E0220DA6E000EDF6E014A022AEF3F
:101FFB00D7000E506E000E4F6E12000ED0590E0D04
:10200B006E340E0E6E77EC13F01200D70E0D6E3889
:10201B000E0E6E77EC13F0120021C023F022C024B9
:10202B00F02450000AD8A412002350010AD8B4E6B9
:10203B00D7030AD8A41200E9D7000E226E000E2196
:10204B006E000E226E000E216E22BE06D022500DA7
:10205B00E1640E215CD8B009D0730E0D6E3F0E0EED
:10206B006E77EC13F0214A222AEFD70A0E0D6E3B46
:10207B000E0E6E77EC13F012000A500B10D8B4183A
:10208B00D0010E0C6E04D0D8900A360B360C2A0BEE
:10209B00AEFAD70A50085C0B500958D8A004D00AE6
:1020AB0050085E0B50095AD8900B320A320C2EF1A5
:1020BB00D708C008F009C009F01200000E066E0028
:1020CB000E056E03500410D8B41CD0010E076E041D
:1020DB00D0D89003360436072A04AEFAD7D8900529
:1020EB003606360350015C04500258D8A005D003C5
:1020FB0050015E0450025A0580D890043203320717
:10210B002EEDD705C001F006C002F012006B0E0DCC
:10211B006E3E0E0E6E77EC13F0000E476E000E48FF
:10212B006E000E496E000E4A6E000E436E000E449A
:10213B006E000E456E000E466E8A94690E0D6E3F54
:10214B000E0E6E77EC13F0000E4C6E000E4B6E8580
:10215B000E0D6E3E0E0E6E77EC13F017EC0FF012A9
:10216B0000000E096E000E0A6E000E0B6E000E0CB8
:10217B006E01A008D00550092606500A2207500B05
:10218B002208500C22D8900536063607360836D86A
:10219B009004320332023201320150021003100458
:1021AB0010D8A4E6D709C001F00AC002F00BC00397
:1021BB00F00CC004F0120005500610D8A402D00099
:1021CB000E1200000E0B6E000E0A6E19D00A500391
:1021DB0024D96E0B500420DA6E0A500124086E0BC2
:1021EB00500220096E08C0F6FF09C0F7FFDE500948
:1021FB0000F518D8B402D0000E12000A4A0B2A05BB
:10220B00500A5C06500B58D8A0E1D7010E120016ED
:10221B000EF66E1E0EF76E000EF86E00EEC3F0108B
:10222B00EE18F00900F5CFEEFFE550E150FAE1AB07
:10223B000EF66E1D0EF76E000EF86E00EE52F010DD
:10224B00EE07F00900F5CFEEFFE550E150FAE100A3
:10225B00EE60F0630EEE6AE806FDE100EE3BF01770
:10226B000EEE6AE806FDE1000EF86E00018DEF122E
:10227B00F06C0E00016A19D8B405D04C0E00016A3F
:10228B0019D8A402D08A8816D0720E00016A19D808
:10229B00B405D0520E00016A19D8A402D08A980A4C
:1022AB00D000016A51D8B406D0000E226E010E2167
:1022BB006E03EC10F0510E0D6E3E0E0E6E8AA803DF
:1022CB00D0256A252A01D0256A25500F6E106A7712
:1022DB00EC13F012008AA402D0010E01D0000EFF05
:1022EB000A056E054605468A500518FB0B05188A2C
:1022FB006E56C001F057C002F034EC0FF08AA412F6
:10230B0000010E4326000E4422452246228AA807CE
:10231B00D0010E3F26000E40224122422212003FE6
:10232B0050401041104210D8A406D03F06000E407A
:10233B005A415A425A1200511E010E3F26000E40BE
:10234B002241224222120013D0544A552A000E5524
:10235B006E640E546E000E556E000E07D0000E55B7
:10236B006E640E03D0000E556E320E546E12D04BAF
:10237B00C001F04CC002F00250000AD8A40AD001F0
:10238B0050000AD8B4E1D7010AD8B4E8D7030AD869
:10239B00B4E9D74D4A4E2A54504D1815E155504EBD
:1023AB0018D8A41200000E4E6E000E4D6E89A002BE
:1023BB00D0010E01D0000EFF0A016E89500118FEEC
:1023CB000B0118896E120012001E0E0D6E3F0E0EC1
:1023DB006EC30E0F6E000E106E77EC13F0B70E0D72
:1023EB006E3E0E0E6E43C00FF044C010F045C01190
:1023FB00F046C012F047C013F048C014F049C015A6
:10240B00F04AC016F077EC13F0FE0E0D6E3E0E0E7A
:10241B006E8AA803D0216A212A01D0216A21500F8C
:10242B006E106A77EC13F0140E0D6E3E0E0E6E4DA1
:10243B00C00FF04EC010F054C011F055C012F04B4D
:10244B00C013F04CC014F077EC13F01200000E1711
:10245B006E000E186E000E196E000E1A6E0FC01560
:10246B00F010C016F015500D24D96E16500E20DA50
:10247B006EDF50116E11501B6E1C6AD00E1B26FFA7
:10248B000E1C221CBE31D01CBE06D01C502DE10AE6
:10249B000E1B5CD8B029D01BC011F01CC012F00071
:1024AB000E12BEFF0E136E146E17C001F018C00291
:1024BB00F019C003F01AC004F00A0E056E000E06E8
:1024CB006E000E076E000E086EB6EC10F011500188
:1024DB0024176E12500220186E13500320196E141D
:1024EB005004201A6E154A162A1CBE08D01CBEBA00
:1024FB00D71C5004E10A0E1B5CD8A0B4D717C00D33
:10250B00F018C00EF019C00FF01AC010F01200D462
:10251B00EC0EF0A0EC0FF0050E396E660EE82EFEF9
:10252B00D7392EFCD700D022EC10F079EC0FF089C4
:10253B00908A988A948A969EAA42D0AECF3AF00D92
:10254B000E3A18D8B404D00A0E3A18D8A411D04FAA
:10255B00505010D8B40AD0720E0D6E3F0E0E6E771F
:10256B00EC13F014EC16F0E5EC0FF0F3EC0EF02797
:10257B00D01B0E3A18D8A405D0F3EC0EF0E5EC0FF7
:10258B00F01ED0080E3A18D8B404D07F0E3A18D8E3
:10259B00A403D0CCEC0FF013D0600E3A6403D07AC6
:1025AB000E3A640AD02F0E3A6403D0390E3A640403
:1025BB00D0200E3A18D8A403D03A5066EC0FF04353
:1025CB00EC0FF00009D8A470EC11F0A9EC11F0B3EA
:1025DB00D7720E0D6E3F0E0E6E77EC13F0520E0D82
:1025EB006E380E0E6EC30E0F6E000E106E77EC1360
:1025FB00F0750E0D6E3F0E0E6E77EC13F0910E0D07
:10260B006E390E0E6E77EC13F0160E0D6E390E0E34
:10261B006E77EC13F0A70E0D6E3A0E0E6E77EC1371
:10262B00F0560E0D6E350E0E6E77EC13F0540E0D3C
:10263B006E390E0E6E77EC13F0720E0D6E3A0E0EA7
:10264B006E77EC13F0CA0E0D6E390E0E6E77EC131F
:10265B00F0AA0E0D6E3C0E0E6E77EC13F00C0E0DF9
:10266B006E380E0E6E77EC13F06E0E0D6E3B0E0E7B
:10267B006E77EC13F00C0E0D6E3B0E0E6E77EC13AB
:10268B00F03E0E0D6E3B0E0E6E77EC13F0DA0E0D68
:10269B006E3A0E0E6E77EC13F0480E0D6E3D0E0E6D
:1026AB006E77EC13F07F0E0D6E3C0E0E6E77EC1307
:1026BB00F0AE0E0D6E340E0E6E77EC13F0C30E0DE6
:1026CB006E370E0E6E77EC13F02F0E0D6E370E0E5F
:1026DB006E77EC13F0B10E0D6E3D0E0E6E77EC13A4
:1026EB00F012000F0E1A6E000E1B6EBFD0250E20BF
:1026FB0018D8B404D02050DFEC0EF0B7D0000E1871
:10270B006E3DD01AC0D9FF1BC0DAFFDECF1CF0DD47
:10271B00CF1DF0020E1A26000E1B221C501D10D8C6
:10272B00A419D0A40E1C6E3F0E1D6E14D01CC0F647
:10273B00FF1DC0F7FFF86A020EF76403D00800F51F
:10274B005005D0F6CFE9FFF7CFEAFFEF50DFEC0EE5
:10275B00F01C4A1D2A1CC0F6FF1DC0F7FFF86A02C9
:10276B000EF76403D00800F55005D0F6CFE9FFF75C
:10277B00CFEAFFEF500009D8B478D0D8D70DC0F608
:10278B00FF0EC0F7FF0D4A0E2A0800F5CF20F020F0
:10279B0050000AD8B41200640AD8B407D00D0AD876
:1027AB00B404D01A0AD8B4ADD760D01AC0D9FF1B65
:1027BB00C0DAFFDECF1EF0DDCF1FF0020E1A2600AF
:1027CB000E1B221FAE06D0030E18121E6C1F1ED836
:1027DB00B01F2A010E206E050E2018D8B412D0207F
:1027EB0050020D150EF324F66E310EF420F76E0920
:1027FB0000F5501E5C0900F5501F58D8A002D020E0
:10280B002AEAD718C017F0030E1716D8B403D02D29
:10281B000EDFEC0EF020C019F024D01950020D156C
:10282B000EF324F66E310EF420F76E0900F5CF038C
:10283B00F00A00F5CF04F01EC001F01FC002F063D8
:10284B00EC10F001C008F002C009F0000E0B6E0A8C
:10285B000E0A6E42EC10F00850300F206E2050DF45
:10286B00EC0EF019061928D8A4D8D70DC0F6FF0E18
:10287B00C0F7FF0D4A0E2A0800F5CF20F02050D8E4
:10288B00B4120034D7000E386E000E376E38501B62
:10289B00E1140E375CD8B017D0050E3724216E002B
:1028AB000E3820226E600E2124D96E000E2220DA03
:1028BB006E230E3724E16E000E3820E26EDFCFE779
:1028CB00FF374A382AE3D7E10E0D6E360E0E6E77C0
:1028DB00EC13F0C00E016E3F0E026E230E036E0062
:1028EB000E046E000E066E060E056EE1EC10F00087
:1028FB0009D8B40DD0540E0D6E3C0E0E6E77EC1342
:10290B00F01F0E0D6E310E0E6E77EC13F01200E70A
:10291B000E016E3F0E026E230E036E000E046E0050
:10292B000E066E040E056EE1EC10F00009D8B40D26
:10293B00D06B0E0D6E3D0E0E6E77EC13F0CD0E0DB3
:10294B006E320E0E6E77EC13F01200C70E016E3F57
:10295B000E026E230E036E000E046E000E066E0644
:10296B000E056EE1EC10F00009D8B40DD03B0E0D46
:10297B006E3A0E0E6E77EC13F0970E0D6E380E0E40
:10298B006E77EC13F01200EC0E016E3F0E026E230D
:10299B000E036E000E046E000E066E040E056EE145
:1029AB00EC10F00009D8B40DD04D0E0D6E3F0E0E8D
:1029BB006E77EC13F0440E0D6E360E0E6E77EC1335
:1029CB00F01200810E016E3F0E026E230E036E009D
:1029DB000E046E000E066E090E056EE1EC10F00093
:1029EB0009D8B40DD0D30E0D6E3D0E0E6E77EC13D1
:1029FB00F0030E0D6E3A0E0E6E77EC13F012008B89
:102A0B000E016E3F0E026E230E036E000E046E005F
:102A1B000E066E070E056EE1EC10F00009D8B40D32
:102A2B00D0F40E0D6E3D0E0E6E77EC13F0C20E0D44
:102A3B006E310E0E6E77EC13F01200CE0E016E3F60
:102A4B000E026E230E036E000E046E000E066E0653
:102A5B000E056EE1EC10F00009D8B40DD02E0E0D62
:102A6B006E3F0E0E6E77EC13F0F50E0D6E350E0EEF
:102A7B006E77EC13F01200F60E016E3F0E026E2312
:102A8B000E036E000E046E000E066E040E056EE154
:102A9B00EC10F00009D8B40DD05B0E0D6E3F0E0E8E
:102AAB006E77EC13F0CD0E0D6E3B0E0E6E77EC13B6
:102ABB00F01200B90E016E3F0E026E230E036E0074
:102ACB000E046E000E066E060E056EE1EC10F000A5
:102ADB0009D8B40DD00E0E0D6E3F0E0E6E77EC13A3
:102AEB00F0360E0D6E330E0E6E77EC13F01200B245
:102AFB000E016E3F0E026E230E036E000E046E006F
:102B0B000E066E060E056EE1EC10F00009D8B40D42
:102B1B00D0EE0E0D6E3E0E0E6E77EC13F0A60E0D74
:102B2B006E350E0E6E77EC13F012009C0E016E3F9D
:102B3B000E026E230E036E000E046E000E066E0761
:102B4B000E056EE1EC10F00009D8B40DD0CD0E0DD2
:102B5B006E3E0E0E6E77EC13F0030E0D6E350E0EF1
:102B6B006E77EC13F01200D50E016E3F0E026E2342
:102B7B000E036E000E046E000E066E050E056EE162
:102B8B00EC10F00009D8B40DD03E0E0D6E3F0E0EBA
:102B9B006E77EC13F09B0E0D6E330E0E6E77EC13FF
:102BAB00F01200AB0E016E3F0E026E230E036E0091
:102BBB000E046E000E066E060E056EE1EC10F000B4
:102BCB0009D8B40DD0DE0E0D6E3E0E0E6E77EC13E3
:102BDB00F0FA0E0D6E330E0E6E77EC13F01200F151
:102BEB000E016E3F0E026E230E036E000E046E007E
:102BFB000E066E040E056EE1EC10F00009D8B4075A
:102C0B00D07A0E0D6E370E0E6E77EC13F01200505D
:102C1B000E0D6E320E0E6E77EC13F01200C00E011D
:102C2B006E3F0E026E600E036E000E046E000E06FB
:102C3B006E060E056EE1EC10F00009D8B438D06CBE
:102C4B000E00016719D8B405D04C0E00016719D8D6
:102C5B00A407D0D40E0D6E3C0E0E6E77EC13F01253
:102C6B0000720E00016719D8B405D0520E0001672F
:102C7B0019D8A407D0280E0D6E3C0E0E6E77EC13F0
:102C8B00F012002F0E000167650BD03A0E000167A2
:102C9B006107D09E0E0D6E3B0E0E6E77EC13F0128D
:102CAB0000000E226E010E216E03EC10F01200E7F5
:102CBB000E016E3F0E026E600E036E000E046E0070
:102CCB000E066E040E056EE1EC10F00009D8B47818
:102CDB00D06C0E00016519D8B405D04C0E000165FF
:102CEB0019D8A41FD0000E1E6E010E1D6E600E0DA6
:102CFB006E000E0E6E000E106E0A0E0F6E2CEC1286
:102D0B00F00DC01FF00EC020F00FC021F010C0223C
:102D1B00F0B6EC0FF0D40E0D6E3C0E0E6E77EC137E
:102D2B00F01200720E00016519D8B405D0520E00D6
:102D3B00016519D8A41FD0000E1E6E000E1D6E600B
:102D4B000E0D6E000E0E6E000E106E0B0E0F6E2C17
:102D5B00EC12F00DC01FF00EC020F00FC021F010D0
:102D6B00C022F0B6EC0FF0280E0D6E3C0E0E6E77F7
:102D7B00EC13F012002F0E000165651BD03A0E000C
:102D8B0001656117D0600E0D6E000E0E6E000E10F9
:102D9B006E050E0F6E2CEC12F00DC01DF00EC01E4A
:102DAB00F054EC0FF09E0E0D6E3B0E0E6E77EC1387
:102DBB00F01200000E226E010E216E03EC10F012C9
:102DCB0000C70E016E3F0E026E600E036E000E0406
:102DDB006E000E066E060E056EE1EC10F00009D8C3
:102DEB00B438D06C0E00016719D8B405D04C0E0066
:102DFB00016819D8A407D0D40E0D6E3C0E0E6E7759
:102E0B00EC13F01200720E00016719D8B405D05202
:102E1B000E00016719D8A407D0280E0D6E3C0E0EBC
:102E2B006E77EC13F012002F0E000167650BD03A92
:102E3B000E0001676107D0220E0D6E3D0E0E6E77F0
:102E4B00EC13F01200000E226E010E216E03EC103B
:102E5B00F01200EC0E016E3F0E026E600E036E0060
:102E6B000E046E000E066E040E056EE1EC10F00003
:102E7B0009D8B438D06C0E00016519D8B405D04C04
:102E8B000E00016519D8A407D0330E0D6E3E0E0E41
:102E9B006E77EC13F01200720E00016519D8B405B1
:102EAB00D0520E00016519D8A407D08E0E0D6E3DC1
:102EBB000E0E6E77EC13F012002F0E000165650BF2
:102ECB00D03A0E0001656107D0220E0D6E3D0E0E3D
:102EDB006E77EC13F01200000E226E010E216E03C2
:102EEB00EC10F01200F10E016E3F0E026E600E033D
:102EFB006E000E046E000E066E040E056EE1EC10F5
:102F0B00F00009D8B40ED050BE09D0505004E105E2
:102F1B000E4F5CD8A003D048EC14F01200EEEC126C
:102F2B00F01200810E016E3F0E026E600E036E00FA
:102F3B000E046E000E066E090E056EE1EC10F0002D
:102F4B0009D8B403D03EEC11F01200B90E016E3F5C
:102F5B000E026E600E036E000E046E000E066E0601
:102F6B000E056EE1EC10F00009D8B403D017EC0F8E
:102F7B00F012008B0E016E3F0E026E600E036E00A0
:102F8B000E046E000E066E080E056EE1EC10F000DE
:102F9B0009D8B414D050BE07D0505003E1090E4FDE
:102FAB005CD8B025EC0FF0FB0E0D6E3B0E0E6E5683
:102FBB00C00FF057C010F077EC13F01200B20E01F7
:102FCB006E3F0E026E600E036E000E046E000E0658
:102FDB006E060E056EE1EC10F00009D8B403D08C30
:102FEB00EC0FF012009C0E016E3F0E026E600E0392
:102FFB006E000E046E000E066E070E056EE1EC10F1
:10300B00F00009D8B403D002EC0FF01200D50E017A
:10301B006E3F0E026E600E036E000E046E000E0607
:10302B006E050E056EE1EC10F00009D8B403D0E587
:10303B00EC0EF01200AB0E016E3F0E026E600E0333
:10304B006E000E046E000E066E060E056EE1EC10A1
:10305B00F00009D8B403D0ECEC0EF01200DB0E013B
:10306B006E3F0E026E600E036E000E046E000E06B7
:10307B006E050E056EE1EC10F00009D8B402D0001D
:10308B00F01200CE0E016E3F0E026E600E036E004C
:10309B000E046E000E066E060E056EE1EC10F000CF
:1030AB0009D8B403D0EAEC11F01200F60E016E3F12
:1030BB000E026E600E036E000E046E000E066E04A2
:1030CB000E056EE1EC10F00009D8B403D08CEC10B7
:1030DB00F01200E10E016E3F0E026E600E036E00E9
:1030EB000E046E000E066E050E056EE1EC10F00080
:1030FB0009D8B403D022EC10F01200000E226E019E
:10310B000E216E03EC10F012000001000A006400A7
:10311B00E80310274D6F76657320746865206D6F1B
:10312B00746F722074686520676976656E206E75A2
:10313B006D626572206F662063656E74696D657470
:10314B0065727320696E20746865206465666175AD
:10315B006C7420646972656374696F6E2C20756E74
:10316B006C657373206120646972656374696F6E3B
:10317B0020686173206265656E20676976656E2EC7
:10318B0020446972656374696F6E2063616E20629F
:10319B006520737065636966696564207573696E14
:1031AB006720276C65667427206F7220277269670A
:1031BB006874272E0D0A005365747320746865209C
:1031CB006D696E696D756D2064656C6179206265E2
:1031DB00747765656E206561636820737465702014
:1031EB00696E206D696C6C697365636F6E64732EA9
:1031FB002044656C617973206D617920656E642064
:10320B00757020736C696768746C79206C6F6E676E
:10321B0065722062656361757365206F66206F74DC
:10322B0068657220636F6D6D616E64732062656992
:10323B006E672074797065642F6578656375746546
:10324B00642E0D0A005468617420636F6D6D616E9E
:10325B00642069736E277420696E2074686520681A
:10326B00656C702066696C652E20466F722061203C
:10327B006265747465722068656C702066696C6534
:10328B002C20636865636B20746865206173736FB2
:10329B00636961746564206D616E75616C2C207758
:1032AB00686963682063616E20616C736F2062656F
:1032BB0020666F756E64206F6E6C696E652E200DC7
:1032CB000A004D6F76657320746865206D6F746F9F
:1032DB00722074686520676976656E206E756D6205
:1032EB006572206F6620737465707320696E20742D
:1032FB0068652064656661756C74206469726563CA
:10330B0074696F6E2C20756E6C657373206120640D
:10331B006972656374696F6E20686173206265659D
:10332B006E20676976656E2E0D0A00416C6C6F77A7
:10333B0020666F72206D616E75616C206D6F7665A6
:10334B006D656E74206F662074686520736C69649C
:10335B00657220627920646973656E676167696E57
:10336B006720746865206D6F746F722E20486974C6
:10337B0020616E79206B657920746F206578697494
:10338B00206D616E75616C206D6F64652E0D0A008A
:10339B00476F20746F2074686520706F7369746950
:1033AB006F6E2072656D656D626572656420617309
:1033BB002027656E64272E2054686520656E642077
:1033CB00706F736974696F6E20686173206E6F2004
:1033DB0064656661756C742C207365742069742048
:1033EB007769746820736574656E642E0D0A0053DB
:1033FB006574207468652063757272656E742070D5
:10340B006F736974696F6E206173207468652065D2
:10341B006E6420706F736974696F6E20736F2074A4
:10342B006861742069742063616E20626520726527
:10343B00666572656E636564206279206F7468657A
:10344B007220636F6D6D616E64732E0D0A0054688C
:10345B00617420636F6D6D616E6420666F726D6158
:10346B0074207761736E2774207265636F676E6962
:10347B007A65642E205472792072756E6E696E6750
:10348B00202768656C702720666F7220636F6D6DE7
:10349B00616E6420696E666F726D6174696F6E2EFA
:1034AB00200A005472792068656C702028636F6D58
:1034BB006D616E642920666F72206D6F7265206975
:1034CB006E666F726D6174696F6E2061626F757479
:1034DB002074686520676976656E20636F6D6D611A
:1034EB006E6420616E6420636F6D6D616E64207518
:1034FB00736167652E0A0D0053657420746865202F
:10350B0063757272656E7420706F736974696F6E18
:10351B0020617320686F6D6520736F207468617410
:10352B002069742063616E20626520726566657226
:10353B00656E636564206279206F746865722063C1
:10354B006F6D6D616E64732E0D0A00202020736306
:10355B00616E636D20202009205363616E206672BB
:10356B006F6D207468652063757272656E74207060
:10357B006F736974696F6E2074686520676976650F
:10358B006E206E756D626572206F662063656E745A
:10359B00696D65746572732E0A0D00476F20746F29
:1035AB002074686520706F736974696F6E20726523
:1035BB006D656D62657265642061732027686F6D40
:1035CB0065272C2064656661756C74696E67207461
:1035DB006F20746865207374617274757020706FDE
:1035EB00736974696F6E2E0D0A00566965772074C6
:1035FB0068652063757272656E742073746174757F
:10360B0073206F6620766172696F757320736574B2
:10361B0074696E677320616E642061637469766987
:10362B0074696573206F66207468652064696769C7
:10363B0074697A65722E0D0A005363616E7320668E
:10364B00726F6D2074686520686F6D6520706F7385
:10365B006974696F6E20746F2074686520656E6481
:10366B0020706F736974696F6E2C20736176696E4D
:10367B006720746865206469676974616C206F7575
:10368B00747075742E0D0A000A0D4D616E75616CA8
:10369B00206D6F6465206163746976652E204D6FB4
:1036AB00766520736C69646572206D616E75616CF3
:1036BB006C792C2068697420616E79206B65792098
:1036CB00746F20657869742074686973206D6F64FA
:1036DB00652E200D0A00537065637472756D20445E
:1036EB0069676974697A65722076312E3220286297
:1036FB00657461292C204368726973746F706865F7
:10370B0072205468696572617566202863687269F6
:10371B007340637468696561726175662E636F6D62
:10372B00290A0D0042656361757365206F66206120
:10373B00206C61636B206F66207370616365206F13
:10374B006E2074686973206465766963652C2074D8
:10375B006865206D616E75616C20697320616C7397
:10376B006F206F6E6C696E65206174200A0D0068A6
:10377B00656C703A204765742068656C70206F6EBD
:10378B0020646966666572656E742066756E637417
:10379B00696F6E7320616E64206162696C69746914
:1037AB006573206F66207468697320646967697438
:1037BB00697A65722E0D0A004D6F72652068656C13
:1037CB00702C20646F63756D656E746174696F6EB8
:1037DB002C20616E6420696E666F726D6174696F07
:1037EB006E2063616E20626520666F756E64206962
:1037FB006E20746865206D616E75616C2E200A0DEC
:10380B00002020206D616E75616C20202009204105
:10381B006C6C6F7720666F72206D616E75616C20BA
:10382B006D6F76656D656E74206F6620736C696461
:10383B0065722028646973656E67616765206D6FBB
:10384B00746F72290A0D00537065637472756D2065
:10385B004469676974697A65722025732C20436803
:10386B00726973746F7068657220546869657261F0
:10387B007566202863687269734063746869656153
:10388B00726175662E636F6D290A0D005363616E4D
:10389B0020612067697665206E756D626572206F99
:1038AB00662063656E74696D6574657273206672EC
:1038BB006F6D207468652063757272656E7420700D
:1038CB006F736974696F6E2E200D0A0054686174F2
:1038DB0020636F6D6D616E64207761732072656319
:1038EB006F676E697A6564206275742069736E27E1
:1038FB00742063757272656E746C7920696D706C6F
:10390B00656D656E7465642E200A002020206D6F36
:10391B007665636D20202009204D6F7665207468D5
:10392B0065206D6F746F72206120676976656E20FC
:10393B006E756D626572206F662063656E74696D5E
:10394B0065746572732E0A0D002020206469726500
:10395B006374696F6E092053657420746865206405
:10396B00656661756C7420646972656374696F6EEA
:10397B0020666F7220746869732073657373696F47
:10398B006E2E200A0D002020206D6F7665202020E2
:10399B00202009204D6F766520746865206D6F744B
:1039AB006F72206120676976656E206E756D62653A
:1039BB0072206F662073746570732E200A0D0020C1
:1039CB00202073746174757320202009204765745F
:1039DB00207468652063757272656E7420737461F0
:1039EB00747573206F6620746865206469676974E9
:1039FB00697A65722E0A0D005365747320746865BD
:103A0B002064656661756C742064697265637469A2
:103A1B006F6E206F66206D6F76656D656E742061BD
:103A2B006E64207363616E6E696E672E200D0A00E3
:103A3B0055736167653A207363616E636D203C64F7
:103A4B006972656374696F6E3E205B646973746140
:103A5B006E636520696E2063656E74696D65746550
:103A6B0072735D200D0A0020202073657464656CF1
:103A7B00617920092053657420746865206D696E27
:103A8B00696D756D2064656C61792062657477650D
:103A9B00656E2073746570732E0D0A0020202073E1
:103AAB0063616E202020202009205363616E2074F7
:103ABB0068652066756C6C206C656E677468206F2A
:103ACB00662074686520706C6174652E0A0D002089
:103ADB002020736574656E64202020092053657463
:103AEB00207468652063757272656E7420706F73D5
:103AFB006974696F6E20617320656E642E200A0DE8
:103B0B0000202020736574686F6D65202009205399
:103B1B006574207468652063757272656E742070AD
:103B2B006F736974696F6E20617320686F6D652E9A
:103B3B000A0D00202020676F656E6420202020096D
:103B4B0020476F20746F2074686520706F736974E1
:103B5B00696F6E2073657420617320656E642E200F
:103B6B000A0D00202020676F686F6D6520202009EB
:103B7B0020476F20746F2074686520706F736974B1
:103B8B00696F6E2073657420617320686F6D652E8D
:103B9B000A0D005374617274696E67206D6F7665E0
:103BAB006D656E7420696E2074686520646566614E
:103BBB00756C7420646972656374696F6E2E200D69
:103BCB000A0053746F707320616C6C206375727292
:103BDB00656E7420616374696F6E73206F662074F9
:103BEB006865206469676974697A65722E0D0A00CD
:103BFB0043757272656E74206D696E696D756D209B
:103C0B0064656C6179206265747765656E20737489
:103C1B00657073206973202569206D75005374617D
:103C2B007274696E67206D6F76656D656E74206951
:103C3B006E207468652072696768742064697265A8
:103C4B006374696F6E2E0D0A0055736167653A20B8
:103C5B006D6F7665636D203C646972656374696F23
:103C6B006E3E205B63656E74696D65746572735D22
:103C7B00200D0A0020202068656C70202020202059
:103C8B000920446973706C617920746869732068CA
:103C9B00656C70206469616C6F6775650A0D002037
:103CAB00202068616C742020202020092053746F21
:103CBB007020616C6C2063757272656E7420616329
:103CCB0074696F6E732E0A0D005374617274696E92
:103CDB0067206D6F76656D656E7420696E206C65FF
:103CEB00667420646972656374696F6E2E0D0A00C9
:103CFB0054797065202768656C702720666F722079
:103D0B0061206C697374206F6620636F6D6D616EDB
:103D1B0064732E200A0D005363616E6E696E67200B
:103D2B00696E207468652064656661756C742064C7
:103D3B006972656374696F6E2E200D0A0020202056
:103D4B00636C656172202020200920436C656172D1
:103D5B00207468652073637265656E2E200D0A00F2
:103D6B0055736167653A206D6F7665203C646972A7
:103D7B00656374696F6E3E205B73746570735D2051
:103D8B000D0A005363616E6E696E6720696E207455
:103D9B006865207269676874206469726563746909
:103DAB006F6E2E0D0A006374686965726175662EFD
:103DBB00636F6D2F6469676974697A65722D6D61C4
:103DCB006E75616C200D0A0055736167653A20644E
:103DDB006972656374696F6E205B72696768742FB3
:103DEB006C6566745D200D0A0055736167653A203A
:103DFB0073657464656C6179205B64656C617920B3
:103E0B00696E206D735D0D0A00426C696E6B733ABF
:103E1B00202020202569206F662025692C206D6FBE
:103E2B0064652025690D0A005363616E6E696E67C8
:103E3B0020696E206C6566742064697265637469B1
:103E4B006F6E2E0D0A00446972656374696F6E2084
:103E5B0069732025692C2025692C2025690A0D0002
:103E6B0053746F7070696E6720616E79206D6F7619
:103E7B00656D656E742E2E2E2000456E746572690D
:103E8B006E67206D616E75616C206D6F64652E20A1
:103E9B000D0A00537065637472756D204469676910
:103EAB0074697A65722C2025730A0D005374657042
:103EBB00733A20202020202569206F662025690D6C
:103ECB000A0055736167653A20736574686F6D6599
:103EDB000D0A0055736167653A20736574656E64EE
:103EEB000D0A0055736167653A20676F686F6D65E2
:103EFB000D0A00446972656374696F6E3A20256917
:103F0B000D0A0055736167653A206D616E75616CC2
:103F1B000D0A0056657273696F6E3A202020257367
:103F2B000D0A0055736167653A207374617475737C
:103F3B000D0A0055736167653A20676F656E640DF6
:103F4B000A0055736167653A207363616E0D0A0051
:103F5B0055736167653A2068616C740D0A00537480
:103F6B006F707065642E200D0A00434F4D4D4D410F
:103F7B004E44530A0D00646972656374696F6E0079
:103F8B0073657464656C6179000A0D636D643E2022
:103F9B0000736574686F6D6500286E756C6C290015
:103FAB00736574656E6400676F686F6D65006D6136
:103FBB006E75616C006D6F7665636D007363616E1A
:103FCB00636D0073746174757300676F656E640065
:103FDB0070756C736500636C656172006D6F7665EF
:103FEB00007363616E0068656C700068616C7400CF
:053FFB00082008000091
:020000040020DA
:08000000FFFFFFFFFFFFFFFF00
:020000040030CA
:0E000000FF890D3E1C9D85FF0FC00FE00F40D5
:00000001FF
